:100000000C9462000C948A000C948A000C948A0070
:100010000C948A000C948A000C948A000C948A0038
:100020000C948A000C948A000C948A000C948A0028
:100030000C948A000C948A000C948A000C948A0018
:100040000C9411040C948A000C9481040C945B04AD
:100050000C948A000C948A000C948A000C948A00F8
:100060000C948A000C948A000000000024002700F1
:100070002A0000000000250028002B0000000000DE
:1000800023002600290004040404040404040202DA
:100090000202020203030303030301020408102007
:1000A0004080010204081020010204081020000012
:1000B0000008000201000003040700000000000027
:1000C0000000A00511241FBECFEFD8E0DEBFCDBFDA
:1000D00011E0A0E0B1E0EEEEFBE002C005900D9271
:1000E000A433B107D9F721E0A4E3B1E001C01D9228
:1000F000AE3DB207E1F710E0C2E6D0E004C02197C0
:10010000FE010E94EF05C136D107C9F70E94B30472
:100110000C94F5050C940000833081F028F48130B4
:1001200099F08230A9F008958730A9F08830C9F09D
:100130008430B1F4809180008F7D03C08091800075
:100140008F7780938000089584B58F7784BD08955C
:1001500084B58F7DFBCF8091B0008F778093B00006
:1001600008958091B0008F7DF9CFCF93DF93282F32
:1001700030E0F901E255FF4F8491F901E656FF4F57
:10018000D491F901EA57FF4FC491CC23A1F081111A
:100190000E948C00EC2FF0E0EE0FFF1FE458FF4FA1
:1001A000A591B491EC91ED2381E090E009F480E019
:1001B000DF91CF91089580E090E0FACF1F93CF9325
:1001C000DF93282F30E0F901E255FF4F8491F901C8
:1001D000E656FF4FD491F901EA57FF4FC491CC2363
:1001E000A9F0162F81110E948C00EC2FF0E0EE0F89
:1001F000FF1FEE58FF4FA591B4918FB7F894EC9183
:10020000111108C0D095DE23DC938FBFDF91CF9111
:100210001F910895DE2BF8CFCF93DF9390E0FC0180
:10022000E656FF4F24918A579F4FFC018491882303
:10023000D1F090E0880F991FFC01E859FF4FA5917C
:10024000B491FC01EE58FF4FC591D49161110EC0DD
:100250009FB7F8948C91E22FE0958E238C932881A0
:10026000E223E8839FBFDF91CF9108958FB7F89481
:10027000EC91E22BEC938FBFF6CF1F93CF93DF93DC
:10028000182FEB0161E00E940C01209739F460E027
:10029000812FDF91CF911F910C94DE00CF3FD105CC
:1002A00011F461E0F5CFE12FF0E0E255FF4FE4916A
:1002B000E33031F140F4E130B1F0E230E1F0C03848
:1002C000D1057CF7E4CFE73029F1E83059F1E4308B
:1002D000B1F780918000806280938000D0938B0082
:1002E000C0938A0004C084B5806884BDC7BDDF9117
:1002F000CF911F91089584B5806284BDC8BDF7CFAA
:1003000080918000806880938000D0938900C093A2
:100310008800EDCF8091B00080688093B000C093DA
:10032000B300E5CF8091B00080628093B000C093AD
:10033000B400DDCF3FB7F89480913D0190913E012C
:10034000A0913F01B091400126B5A89B05C02F3F69
:1003500019F00196A11DB11D3FBFBA2FA92F982FEB
:100360008827BC01CD01620F711D811D911D42E0E6
:10037000660F771F881F991F4A95D1F708958F92AE
:100380009F92AF92BF92CF92DF92EF92FF920E9424
:100390009A014B015C0182E3C82ED12CE12CF12C97
:1003A0000E949A01681979098A099B09683E73407D
:1003B00081059105A8F321E0C21AD108E108F108EE
:1003C00088EE880E83E0981EA11CB11CC114D104D4
:1003D000E104F10429F7FF90EF90DF90CF90BF90F8
:1003E000AF909F908F900895AF92BF92CF92DF927F
:1003F000EF92FF920F931F93CF93DF936C017B01DA
:100400008B01040F151FEB015E01AE18BF08C0176A
:10041000D10759F06991D601ED91FC910190F081DD
:10042000E02DC6010995892B79F7C501DF91CF91A0
:100430001F910F91FF90EF90DF90CF90BF90AF9002
:100440000895FC01538D448D252F30E0842F90E0DA
:10045000821B930B541710F0CF96089501970895BF
:10046000FC01918D828D981761F0A28DAE0FBF2F88
:10047000B11D5D968C91928D9F5F9F73928F90E0DE
:1004800008958FEF9FEF0895FC01918D828D98174D
:1004900031F0828DE80FF11D858D90E008958FEF8A
:1004A0009FEF0895FC01918D228D892F90E0805C53
:1004B0009F4F821B91098F739927089581E491E0E2
:1004C0000E94520221E0892B09F420E0822F089536
:1004D00080E090E0892B29F00E945E0281110C944B
:1004E00000000895FC01A48DA80FB92FB11DA35AD7
:1004F000BF4F2C91848D90E001968F739927848F44
:10050000A689B7892C93A089B1898C918370806466
:100510008C93938D848D981306C00288F389E02D07
:1005200080818F7D80830895EF92FF920F931F93B8
:10053000CF93DF93EC0181E0888F9B8D8C8D981396
:100540001AC0E889F989808185FF15C09FB7F894A2
:10055000EE89FF896083E889F989808183708064EE
:1005600080839FBF81E090E0DF91CF911F910F9139
:10057000FF90EF900895F62E0B8D10E00F5F1F4F48
:100580000F731127E02E8C8D8E110CC00FB607FC57
:10059000FACFE889F989808185FFF5CFCE010E94E5
:1005A0007202F1CFEB8DEC0FFD2FF11DE35AFF4FDF
:1005B000F0829FB7F8940B8FEA89FB898081806273
:1005C000CFCFCF93DF93EC01888D8823B9F0AA8930
:1005D000BB89E889F9898C9185FD03C0808186FDFE
:1005E0000DC00FB607FCF7CF8C9185FFF2CF80814D
:1005F00085FFEDCFCE010E947202E9CFDF91CF914E
:100600000895FC0101900020E9F73197AF01481BE4
:10061000590BBC0181E491E00C94F4018F929F92FC
:10062000AF92BF920F931F93CF93DF93CDB7DEB7F7
:10063000A1970FB6F894DEBF0FBECDBF19A242300E
:1006400008F44AE08E010F5D1F4F842E912CB12CCF
:10065000A12CA50194010E94CD05E62FB901CA0184
:10066000EA30F4F4E05DD801EE938D01232B242BC6
:10067000252B79F790E080E0109719F0CD010E94CA
:100680000103A1960FB6F894DEBF0FBECDBFDF9178
:10069000CF911F910F91BF90AF909F908F90089531
:1006A000E95CE1CFDF92EF92FF920F931F93CF931C
:1006B000DF93D82EE0903401F090350110E000E097
:1006C000E016F10639F182E191E00E94010383E234
:1006D00091E00E940103609134017091350190E036
:1006E00080E04AE00E940E0383E291E00E94010351
:1006F000C0913401D0913501BE018D2D0E943D0184
:100700000E94BF012197D0933501C09334010F5F40
:100710001F4FD6CF70E060E08D2DDF91CF911F91FC
:100720000F91FF90EF90DF900C943D01BF92CF921C
:10073000DF92EF92FF920F931F93CF93DF93162FC9
:10074000072FB42E2091340130913501232B09F469
:1007500041C00E945203E12CFF24F394CC24CA949C
:10076000D12C86E291E00E94010383E291E00E9495
:100770000103609134017091350190E080E04AE01E
:100780000E940E0383E291E00E940103C0913401B4
:10079000D0913501BE01812F0E943D010E94BF0111
:1007A0002196CF3FD105D8F4D0933501C0933401C1
:1007B00083E00E94B500892BB9F4812F902FDF913F
:1007C000CF911F910F91FF90EF90DF90CF90BF904E
:1007D0000C94520370E060E00E943D01BCCFD092C7
:1007E0003501C0923401E4CF8B2D0E94B500892BD6
:1007F00091F4812F902F0E945203109336010093A1
:100800003701DF91CF911F910F91FF90EF90DF9013
:10081000CF90BF90089581E0E81AF10809F0A1CFC8
:10082000F0CF1F920F920FB60F9211242F933F9388
:100830008F939F93AF93BF938091390190913A0129
:10084000A0913B01B0913C013091380123E0230F8E
:100850002D3758F50196A11DB11D209338018093C5
:10086000390190933A01A0933B01B0933C018091F0
:100870003D0190913E01A0913F01B0914001019650
:10088000A11DB11D80933D0190933E01A0933F01B6
:10089000B0934001BF91AF919F918F913F912F9164
:1008A0000F900FBE0F901F90189526E8230F029609
:1008B000A11DB11DD2CF1F920F920FB60F9211241E
:1008C0002F933F934F935F936F937F938F939F9358
:1008D000AF93BF93EF93FF9381E491E00E94720284
:1008E000FF91EF91BF91AF919F918F917F916F9108
:1008F0005F914F913F912F910F900FBE0F901F90DE
:1009000018951F920F920FB60F9211242F938F9369
:100910009F93EF93FF93E0915101F09152018081F9
:10092000E0915701F091580182FD1BC090818091A8
:100930005A018F5F8F7320915B01821741F0E09124
:100940005A01F0E0EF5BFE4F958F80935A01FF91C3
:10095000EF919F918F912F910F900FBE0F901F904D
:1009600018958081F4CF789484B5826084BD84B575
:10097000816084BD85B5826085BD85B5816085BD9A
:1009800080916E00816080936E0010928100809152
:1009900081008260809381008091810081608093DA
:1009A0008100809180008160809380008091B100FF
:1009B00084608093B1008091B00081608093B0002A
:1009C00080917A00846080937A0080917A008260BE
:1009D00080937A0080917A00816080937A00809180
:1009E0007A00806880937A001092C10061E08AE00A
:1009F0000E940C0161E089E00E940C0160E082E04D
:100A00000E940C0160E083E00E940C0160E084E041
:100A10000E940C0170E060E08AE00E943D0170E0FD
:100A200060E089E00E943D01E0915101F0915201A6
:100A300082E08083E0914D01F0914E011082E091BF
:100A40004F01F09150018FEC808310925901E09199
:100A50005501F091560186E08083E0915301F091B9
:100A60005401808180618083E0915301F0915401B1
:100A7000808188608083E0915301F09154018081EE
:100A800080688083E0915301F091540180818F7DD3
:100A9000808300E010E082E00E94B500892BE1F045
:100AA000C0913601D0913701C930D105A9F083E05A
:100AB0000E94B500892BE9F084E00E94B500892BE3
:100AC000E1F5109237011092360142E050E069E002
:100AD00070E08AE090E00AC010923701109236016F
:100AE00044E050E06AE070E089E090E00E94960304
:100AF00018C08091340190913501892BE9F289E089
:100B000090E02A9711F08AE090E00E94520370E092
:100B100060E08AE00E943D0170E060E089E00E94B0
:100B20003D010115110509F4B6CF0E945E0288232C
:100B300009F4B1CF0E940000AECF2A9791F7C1CF40
:100B4000E1E4F1E01382128288EE93E0A0E0B0E0ED
:100B500084839583A683B78384E091E09183808327
:100B600085EC90E09587848784EC90E09787868772
:100B700080EC90E0918B808B81EC90E0938B828B6A
:100B800082EC90E0958B848B86EC90E0978B868B43
:100B9000118E128E138E148E0895A1E21A2EAA1BA6
:100BA000BB1BFD010DC0AA1FBB1FEE1FFF1FA2171D
:100BB000B307E407F50720F0A21BB30BE40BF50B1A
:100BC000661F771F881F991F1A9469F760957095A3
:100BD000809590959B01AC01BD01CF010895EE0F6A
:0E0BE000FF1F0590F491E02D0994F894FFCFCB
:100BEE00000000009402F4012102E10252023002E0
:100BFE0044024465736163656C65726163696F6E0F
:100C0E003A20000D0A004163656C65726163696F7D
:040C1E006E3A20000A
:00000001FF
