:100000000C9461000C9473000C9473000C947300B6
:100010000C9473000C9473000C9473000C94730094
:100020000C9473000C9473000C9473000C94730084
:100030000C9473000C9473000C9473000C94730074
:100040000C9496020C9473000C9473000C9473003F
:100050000C9473000C9473000C9473000C94730054
:100060000C9473000C94730000000000240027001F
:100070002A0000000000250028002B0000000000DE
:1000800023002600290004040404040404040202DA
:100090000202020203030303030301020408102007
:1000A0004080010204081020010204081020000012
:1000B0000008000201000003040700000000000027
:1000C000000011241FBECFEFD8E0DEBFCDBF21E07E
:1000D000A0E0B1E001C01D92A131B207E1F70E949A
:1000E000E0020C94A9030C940000833081F028F402
:1000F000813099F08230A9F008958730A9F08830D6
:10010000C9F08430B1F4809180008F7D03C080916C
:1001100080008F7780938000089584B58F7784BDA9
:10012000089584B58F7DFBCF8091B0008F77809349
:10013000B00008958091B0008F7DF9CFCF93DF9309
:10014000282F30E0F901E255FF4F8491F901E6567E
:10015000FF4FD491F901EA57FF4FC491CC23A1F08E
:1001600081110E947500EC2FF0E0EE0FFF1FE458A4
:10017000FF4FA591B491EC91ED2381E090E009F45B
:1001800080E0DF91CF91089580E090E0FACF1F9357
:10019000CF93DF93282F30E0F901E255FF4F849190
:1001A000F901E656FF4FD491F901EA57FF4FC49188
:1001B000CC23A9F0162F81110E947500EC2FF0E0DE
:1001C000EE0FFF1FEE58FF4FA591B4918FB7F89433
:1001D000EC91111108C0D095DE23DC938FBFDF9125
:1001E000CF911F910895DE2BF8CFCF93DF9390E04E
:1001F000FC01E656FF4F24918A579F4FFC018491E2
:100200008823D1F090E0880F991FFC01E859FF4F37
:10021000A591B491FC01EE58FF4FC591D4916111A5
:100220000EC09FB7F8948C91E22FE0958E238C93AB
:100230002881E223E8839FBFDF91CF9108958FB794
:10024000F894EC91E22BEC938FBFF6CF1F93CF93F2
:10025000DF93182FEB0161E00E94F500209739F43D
:1002600060E0812FDF91CF911F910C94C700CF3FA9
:10027000D10511F461E0F5CFE12FF0E0E255FF4F39
:10028000E491E33031F140F4E130B1F0E230E1F0FB
:10029000C038D1057CF7E4CFE73029F1E83059F1D7
:1002A000E430B1F780918000806280938000D09329
:1002B0008B00C0938A0004C084B5806884BDC7BD2C
:1002C000DF91CF911F91089584B5806284BDC8BD30
:1002D000F7CF80918000806880938000D093890060
:1002E000C0938800EDCF8091B00080688093B0000B
:1002F000C093B300E5CF8091B00080628093B000DE
:10030000C093B400DDCF3FB7F89480910D01909178
:100310000E01A0910F01B091100126B5A89B05C058
:100320002F3F19F00196A11DB11D3FBFBA2FA92F74
:10033000982F8827BC01CD01620F711D811D911D71
:1003400042E0660F771F881F991F4A95D1F70895DD
:100350008F929F92AF92BF92CF92DF92EF92FF92D5
:100360000E9483014B015C0182E3C82ED12CE12C59
:10037000F12C0E948301681979098A099B09683E5A
:10038000734081059105A8F321E0C21AD108E10864
:10039000F10888EE880E83E0981EA11CB11CC114E0
:1003A000D104E104F10429F7FF90EF90DF90CF90A2
:1003B000BF90AF909F908F900895CF92DF92FF9261
:1003C0000F931F93CF93DF93F82EC0900201D0902C
:1003D000030110E000E0C016D10691F0C0910201C7
:1003E000D0910301BE018F2D0E9426010E94A80119
:1003F0002197D0930301C09302010F5F1F4FEBCFF2
:1004000070E060E08F2DDF91CF911F910F91FF90F1
:10041000DF90CF900C9426017F928F929F92AF92A3
:10042000BF92CF92DF92EF92FF920F931F93CF93E1
:10043000DF937C01EB01742E60930401D0930501DE
:100440008091020190910301892BA1F1C7010E94C3
:10045000DD01C12CDD24D394AA24AA94B12C8824D4
:100460008394912C0091020110910301B8018C2F0B
:100470000E9426010E94A8010F5F1F4F0F3F110528
:10048000F8F4109303010093020183E00E949E00A0
:10049000892BD9F4CE01DF91CF911F910F91FF905D
:1004A000EF90DF90CF90BF90AF909F908F907F9014
:1004B0000C94DD0170E060E08E2D0E942601C9CF12
:1004C000B0920301A0920201E0CF89E0E816F104A6
:1004D00011F59092010180920001872D0E949E00EB
:1004E000892BF1F4CE010E94DD01F0920501E0922A
:1004F0000401C0930601D0930701DF91CF911F91B2
:100500000F91FF90EF90DF90CF90BF90AF909F90B2
:100510008F907F9008951092010110920001DDCF1D
:1005200081E0C81AD10809F09DCFE7CF1F920F9242
:100530000FB60F9211242F933F938F939F93AF93F6
:10054000BF938091090190910A01A0910B01B09194
:100550000C013091080123E0230F2D3758F5019647
:10056000A11DB11D209308018093090190930A01F8
:10057000A0930B01B0930C0180910D0190910E019D
:10058000A0910F01B09110010196A11DB11D8093A2
:100590000D0190930E01A0930F01B0931001BF9134
:1005A000AF919F918F913F912F910F900FBE0F9020
:1005B0001F90189526E8230F0296A11DB11DD2CFDA
:1005C000789484B5826084BD84B5816084BD85B52E
:1005D000826085BD85B5816085BD80916E0081603A
:1005E00080936E00109281008091810082608093E0
:1005F00081008091810081608093810080918000E2
:100600008160809380008091B10084608093B1000C
:100610008091B00081608093B00080917A00846006
:1006200080937A0080917A00826080937A00809132
:100630007A00816080937A0080917A00806880934C
:100640007A001092C10061E08AE00E94F50061E04A
:1006500089E00E94F50060E082E00E94F50060E021
:1006600083E00E94F50060E084E00E94F50070E005
:1006700060E08AE00E94260170E060E089E00E946C
:10068000260100E010E082E00E949E00892B09F420
:100690004FC0C0910601D0910701C930D10509F4BE
:1006A00047C083E00E949E00892B31F480910201B3
:1006B00090910301892BD1F484E00E949E00892B44
:1006C00011F02A9749F510920701109206018091C6
:1006D0000401909105010997F9F042E050E069E0CA
:1006E00070E08AE090E00E940C0216C02A9731F078
:1006F00080910001909101010097A9F489E090E0B8
:100700000E94DD0170E060E08AE00E94260170E056
:1007100060E089E00E9426010115110509F4B3CFBC
:100720000E940000B0CF019769F78AE090E0E8CF1F
:100730001092070110920601809104019091050129
:100740000A9751F344E050E06AE070E089E090E0FD
:06075000CACFF894FFCFB0
:00000001FF
